:100000000C9450020C9497020C9497020C94970253
:100010000C9497020C9497020C9497020C949702FC
:100020000C9497020C9497020C9497020C94271C42
:100030000C94D71C0C94C5130C9497020C94970243
:100040000C9497020C9497020C9497020C942D1424
:100050000C9497020C9497020C9497020C949702BC
:100060000C9497020C9497020C9497020C949702AC
:100070000C94970253005400550056005F00600036
:10008000610000005C005D005E00570059005A00EE
:100090005B000000620000006300580001000100E6
:1000A0000100010001000100010000000100010049
:1000B000010001000100010001000000010000003A
:1000C0000100010001000100010001000100010028
:1000D0000100000001000100010001000100010019
:1000E000010000000100000001000100010001000A
:1000F00001000100010001000100000001000100F9
:1001000001000100010001000100000001000000E9
:1001100001000100010001000100010001000100D7
:1001200001000000010001000100010001000100C8
:1001300001000000010000000100010001000100B9
:1001400001000100010001000100000001000100A8
:100150000100010001000100010000000100000099
:100160000100010001000100010001000100010087
:100170000100000001000100010001000100010078
:100180000100000001000000010001000100010069
:100190000100010001000100010000000100010058
:1001A0000100010001000100010000000100000049
:1001B0000100010001000100010001000100010037
:1001C0000100000001000100010001000100010028
:1001D0000100000001000000010001000100010019
:1001E0000100010001000100010000000100010008
:1001F00001000100010001000100000001000000F9
:1002000001000100010001000100010001000100E6
:1002100001000000010001000100010001000100D7
:1002200001000000010000000100010001000100C8
:1002300001000100010001000100000001000100B7
:1002400001000100010001000100000001000000A8
:100250000100010001000100010001000100010096
:100260000100000001000100010001000100010087
:100270000100000001000000010001000100010078
:100280000100010001000100010000000100010067
:100290000100010001000100010000000100000058
:1002A0000100010001000100010001000100010046
:1002B0000100000001000100010001000100010037
:1002C0000100000001000000010001000100010028
:1002D0000100010001000100010000000100010017
:1002E0000100010001000100010000000100000008
:1002F0000100010012036B006500790062006F00CD
:100300006100720064000000160371006D006B0054
:100310006200750069006C006400650072000000F6
:100320000403090409026D00040100A0FA09040095
:100330000001030101000921110100012240000711
:1003400005810308000A09040100010301020009F4
:100350002111010001224D000705820308000A094E
:1003600004020001030000000921110100012236EE
:10037000000705830308000A0904030001030000C5
:100380000009211101000122390007058403200022
:10039000011201100100000008EDFE606001000183
:1003A00002000105010906A101050719E029E71569
:1003B0000025019508750181020508190129059597
:1003C0000575019102950175039101050719002931
:1003D000F71500250195F875018102C00501098016
:1003E000A10185021601002603001A81002A83005C
:1003F000751095018100C0050C0901A10185031646
:100400000100269C021A01002A9C027510950181A8
:1004100000C005010902A1010901A1000509190196
:1004200029051500250195057501810295017503C2
:1004300081010501093009311581257F9502750873
:10044000810609381581257F950175088106050CFF
:100450000A38021581257F950175088106C0C005FF
:10046000010906A101050719E029E71500250195F5
:100470000875018102950175088101050819012996
:1004800005950575019102950175039101050719FF
:100490000029FF150026FF00950675088100C000A1
:1004A00011241FBECFEFD4E0DEBFCDBF04B603FEE4
:1004B00027C08091100290911102A0911202B09178
:1004C00013028730904BA740B04BD1F4109210022A
:1004D00010921102109212021092130214BE84B7ED
:1004E000877F84BF0FB6F894A895809160008861DB
:1004F00080936000109260000FBEE0E0F8E3099581
:1005000011E0A0E0B1E0E8E6F0E402C005900D9251
:10051000A033B107D9F722E0A0E3B1E001C01D92FA
:10052000A031B207E1F70E9494190C9432200C9488
:10053000000090E080E008950895089581E0089516
:10054000089581E008950C949E020E942F0C2FEFD5
:1005500084E39CE0215080409040E1F700C000001F
:100560000C945214FF920F931F93CF93DF938C013F
:10057000FC01C081D18180915B0181113FC08281EA
:100580008823B9F1CE010E94A611F82E682FCE0162
:100590000E944611BE018F2D0E94F903EC01B801A3
:1005A0000E94A302882309F44AC0B801CE010E9428
:1005B0001206882309F443C0C531F0E7DF0718F5B8
:1005C000C23080E7D80708F04BC0C115E0E7DE076E
:1005D00089F1C130D047D1F181E08093320180931D
:1005E0003301C801DF91CF911F910F91FF900C94BF
:1005F000A102CE010E947A11F82ECCCFCE010E942A
:10060000A611BE01C9CFCC3380E7D80709F4ACC02E
:10061000CD33D04709F7F8018281882309F4CBC094
:10062000109233010E94F7139093310180933001AF
:1006300080E2A7C0F801828181110E94A50280E0BA
:10064000DF91CF911F910F91FF900895F801828162
:100650008823A9F38091D00181608093D001EFCFEE
:10066000F8018281882309F4BCCF0E9457138111BD
:1006700002C00E943D130E94741390E09093020206
:1006800080930102FE01E350F047809101028160F6
:10069000E231F105C8F4E15BFC4F0C94E21F610309
:1006A0006D037103750379037D038103850389035A
:1006B0008D039103950399039D03A103A503A9034A
:1006C000AD0380910102826080930102809101025A
:1006D0000E9478130E942F0CB2CF80910102846097
:1006E000F3CF809101028860EFCF80910102806199
:1006F000EBCF809101028062E7CF8091010280649C
:10070000E3CF809101028068DFCF80910102846095
:10071000EACF809101028E7FD7CF809101028D7F39
:10072000D3CF809101028B7FCFCF80910102877F51
:10073000CBCF809101028F7EC7CF809101028F7D48
:10074000C3CF809101028F7BBFCF809101028F7751
:10075000BBCF809101028B7FEACF90910102892F5C
:1007600097FB87F98058B0CFF8018281882361F028
:10077000109232010E94F71390933101809330015F
:1007800082E00E94B9095BCF8091320181110FC0D4
:1007900080913001909131010E940314883C9105B1
:1007A00030F486E20E948E0886E20E946A0982E0A6
:1007B0000E94C00944CF8091330181110FC0809104
:1007C0003001909131010E940314883C910530F46E
:1007D00087E20E948E0887E20E946A0980E2E8CFE1
:1007E0000C9461060C9463060C94A0020C94F40320
:1007F0000895E62F272F90E065E070E00E94BD1F6E
:10080000820F911D880F991F880F991FE80FF92FEC
:10081000F11DEE0FFF1FEC58FF4F85919491089545
:10082000FC01EE0FFF1FEC50FD4F85919491089550
:100830000E94F9030E949105811520E4920708F0B7
:100840008DC0811540E3940708F0EAC0803E910511
:1008500008F071C0803C910508F0CEC0883A91053F
:1008600080F4853A910508F0CCC08130910509F4F7
:100870006EC020F08430910508F069C090E080E0FF
:1008800008958D3B9105D0F7883A910509F40AC186
:10089000893A910509F409C18A3A910509F408C118
:1008A0008B3A910509F407C18C3A910509F406C108
:1008B0008B3B910509F405C18C3B910509F404C1FA
:1008C0008D3A910509F403C1803B910509F402C1F9
:1008D0008E3A910509F401C18F3A910509F400C1DE
:1008E000813B910509F4FFC0823B910509F4FEC0EC
:1008F000833B910509F4FDC0843B910509F4FCC0DC
:10090000853B910509F4FBC0863B910509F4FAC0CB
:10091000873B910509F4F9C0883B910509F4F8C0BB
:10092000893B910509F4F7C08A3B910509F4F6C0AB
:1009300080E094E408958F3F910509F048F4803FEA
:10094000910508F069C0883E910508F097CF089599
:10095000811520E2920708F061C00895811543E5F2
:10096000940770F5811522E5920708F064C081159F
:1009700041E5940708F05AC0811520E5920708F474
:1009800052C09C0174E0369527957A95E1F7922F35
:100990009370482F437021E030E002C0220F331FD4
:1009A0004A95E2F73C68392B86958695837090E0EE
:1009B000E5E0880F991FEA95E1F7822B932B0895C4
:1009C000811545E5940750F4811524E5920708F454
:1009D00048C0982F8827846F906A0895811546E54E
:1009E000940708F454C09C0130569F702115304183
:1009F00008F044CF90620895805C91090E94100431
:100A00000895853A910509F447C0863A910509F0A1
:100A100046C082E890E40895906508959F70EECFF7
:100A20009927906C08959F70906A0895982F882751
:100A3000816F906A0895AC014370552721E030E042
:100A400002C0220F331F4A95E2F78695869590E003
:100A500055E0880F991F5A95E1F7822B932B9C68DC
:100A60000895AC014370552721E030E002C0220F09
:100A7000331F4A95E2F78695869590E045E0880F0A
:100A8000991F4A95E1F7822B932B9A680895982F26
:100A9000882788279F71AECF81E890E4089583E886
:100AA00090E4089582EE94E4089589EE94E4089524
:100AB0008AEE94E4089585EB94E4089586EB94E43B
:100AC000089583EB94E4089584EB94E4089587EB10
:100AD00094E408958CEC94E408958DEC94E40895E6
:100AE00083E895E408958AE895E4089582E995E419
:100AF000089584E995E4089581E296E4089583E2F7
:100B000096E4089584E296E4089585E296E40895D3
:100B100086E296E4089587E296E408958AE296E4F0
:100B200016CF8238910549F1B0F48133910509F46B
:100B30005CC048F48932910509F452C08A329105AB
:100B400009F458C008958533910509F444C08933E8
:100B5000910599F00895833E910531F138F4803E76
:100B6000910591F0823E9105B1F00895863E910580
:100B700011F1873E910541F1089520910102237002
:100B8000C9F080EE90E008952091010220FF12C08C
:100B900089E390E008952091010222FF0BC024FF19
:100BA0002EC090E080E008952091010222FD2AC02D
:100BB00024FDF7CF08952091010223FFFBCF24FDF0
:100BC000F0CF87EE90E008952091010223FFF0CF4F
:100BD00086EE90E008952091010225FD16C008954B
:100BE0002091010225FD14C008952091010226FDE7
:100BF00012C008952091010226FD10C0089583EED1
:100C000090E0089582EE90E0089589E290E00895E2
:100C100085E390E008958AE290E0089581E390E012
:100C2000C9CF08950F931F93CF938C01FB0182814D
:100C3000811106C0C1E08C2FCF911F910F910895B3
:100C4000C0914101C11125C00531104799F70E949B
:100C5000110681E0809341010E94F71390934001B7
:100C600080933F01109234011092360110923501A9
:100C7000109238011092370110923A011092390106
:100C800010923C0110923B0110923E0110923D01E6
:100C9000D2CF80913F01909140010E940314883C83
:100CA000910540F680913401E82FF0E0EE0FFF1F30
:100CB000EB5CFE4F118300838F5F80933401C0E0B3
:100CC000BACF0C949C020C949D02CF93DF93A7E1C2
:100CD000B1E04CE151E0C1E0D0E08D91E82FE29528
:100CE000EF70F0E061A18F709E0101C0220F8A9524
:100CF000EAF7922F9095962391A382A1822B82A34B
:100D00004A175B0751F7A3E1B1E061E070E08D9114
:100D1000E82FE295EF70F0E041A18F709B0101C0D8
:100D2000220F8A95EAF7922F9095942391A382A19E
:100D3000822B82A381E0A731B80749F710924701BF
:100D40001092420110924801109243011092490101
:100D50001092440110924A011092450110924B01E9
:100D600010924601DF91CF910C94F0036F927F9225
:100D70009F92AF92BF92CF92DF92EF92FF920F932A
:100D80001F93CF93DF93C2E4D1E007E111E0EE249B
:100D9000E394F12CDD24D39478811882D8018D91CD
:100DA0008D01E82FE295EF70F0E091A18F70A7011F
:100DB00001C0440F8A95EAF7892F842B81A382A171
:100DC000942E9094892182A3B0EABA95F1F733E189
:100DD000632E31E0732E90E080E0D3013D913D0120
:100DE000A32EA2942FE0A222B12CD5019096CC90F4
:100DF00068813F70D70102C0AA0FBB1F3A95E2F786
:100E00009D012C2109F056C02E2D082E01C0220F65
:100E10000A94EAF7262B2883019684309105E9F697
:100E200081A1892181A382A1842B82A38881781743
:100E300041F0D0924C010E94F71390934E018093A1
:100E40004D012196B1E00C311B0709F0A5CF80912F
:100E50004C018823F1F080914D0190914E010E9448
:100E600003140697B0F0809142018093470180916E
:100E7000430180934801809144018093490180910E
:100E8000450180934A018091460180934B01109265
:100E90004C010E94F20381E0DF91CF911F910F91ED
:100EA000FF90EF90DF90CF90BF90AF909F907F909A
:100EB0006F90089520E0AECFE82FF0E0E95BFE4FA1
:100EC000808108950895909354018093530108956B
:100ED000E0915301F0915401309721F00190F0819D
:100EE000E02D099480E00895E0915301F0915401C0
:100EF000309721F00280F381E02D09940895E0916C
:100F00005301F0915401309721F00480F581E02DD8
:100F10000994089520915101309152012817390701
:100F200071F09093520180935101E0915301F0913F
:100F30005401309721F00680F781E02D099408953F
:100F400020914F01309150012817390771F090938B
:100F5000500180934F01E0915301F091540130977B
:100F600021F00084F185E02D0994089508950C94F2
:100F7000B6070E94EE130E9465060C94B714BF9248
:100F8000CF92DF92EF92FF920F931F93CF93DF9355
:100F9000CDB7DEB72A970FB6F894DEBF0FBECDBF30
:100FA0000E94B60686E5C82E81E0D82E10E000E04B
:100FB000B02E802F0E945C07E82EF601F1906F01A1
:100FC000F81609F45AC08091D00181FD0E94620791
:100FD00090E080E0FE242F2D30E0482FB901082E4C
:100FE00002C0759567950A94E2F760FF41C08E8351
:100FF000BF8281E090E06C0102C0CC0CDD1C4A9500
:10100000E2F72E2D30E02C213D21232B09F480E046
:1010100088870E94F7138160782F9A8789874E818D
:101020005F8168858A850E946408F801EA5AFE4F4C
:1010300080818C2580830E943E170E9468079091D2
:101040005501891789F10E946807809355012A96F6
:101050000FB6F894DEBF0FBECDBFDF91CF911F91C9
:101060000F91FF90EF90DF90CF90BF900C94F6031C
:1010700001968430910509F0B0CF0F5F1F4F053006
:10108000110509F095CF8FEF89838A831B820E9417
:10109000F7138160782F9D838C8349815A816B81FE
:1010A0008D810E946408C7CF2A960FB6F894DEBFE0
:1010B0000FBECDBFDF91CF911F910F91FF90EF90A9
:1010C000DF90CF90BF900895CF93DF93CDB7DEB779
:1010D0002B970FB6F894DEBF0FBECDBF4F83588756
:1010E00069877A878B871E821D8285E0FE0137968D
:1010F000DE01119601900D928A95E1F749815A819E
:101100006B817C818D819E812B960FB6F894DEBF1A
:101110000FBECDBFDF91CF910C94E80E882309F468
:10112000D8C0823871F40E94680781FDD2C089E37B
:101130000E9446120E940E1389E30E9483120C94AF
:101140000E13833859F40E94680780FDC2C083E5FE
:101150000E9446120E940E1383E5EFCF843859F4A3
:101160000E94680782FDB5C087E40E9446120E9473
:101170000E1387E4E2CF9CEF980F913A18F40E9487
:101180004612DDCF90E2980F983050F4877091E0CE
:1011900001C0990F8A95EAF7892F0E94C512CFCF17
:1011A0009BE5980F933070F4853A31F0863A39F028
:1011B00083E890E00C948A0781E890E0FBCF82E816
:1011C00090E0F8CF98E5980F953108F082C0883A02
:1011D00009F440C0893A09F440C08A3A09F440C091
:1011E0008B3A09F440C08C3A09F440C08B3B09F4B7
:1011F00040C08C3B09F440C08D3A09F440C0803BAC
:1012000009F440C08E3A09F440C08F3A09F440C056
:10121000813B09F440C0823B09F440C0833B09F4A0
:1012200040C0843B09F440C0853B09F440C0863B84
:1012300009F440C0873B09F440C0883B09F440C032
:10124000893B09F440C08A3B09F440C090E080E04B
:101250000C94A00782EE90E0FBCF89EE90E0F8CFEF
:101260008AEE90E0F5CF85EB90E0F2CF86EB90E050
:10127000EFCF83EB90E0ECCF84EB90E0E9CF87EB0E
:1012800090E0E6CF8CEC90E0E3CF8DEC90E0E0CF07
:1012900083E891E0DDCF8AE891E0DACF82E991E05E
:1012A000D7CF84E991E0D4CF81E292E0D1CF83E23D
:1012B00092E0CECF84E292E0CBCF85E292E0C8CF3D
:1012C00086E292E0C5CF87E292E0C2CF8AE292E066
:1012D000BFCF0895882309F44BC0823871F40E946F
:1012E000680781FF45C089E30E9446120E940E13E1
:1012F00089E30E9483120C940E13833859F40E94E0
:10130000680780FF35C083E50E9446120E940E13D5
:1013100083E5EFCF843859F40E94680782FF28C024
:1013200087E40E9446120E940E1387E4E2CF9CEFEE
:10133000980F913AF0F290E2980F983050F487703D
:1013400091E001C0990F8A95EAF7892F0E94CB128C
:10135000D2CF9BE5980F933020F490E080E00C947E
:101360008A07885A853120F490E080E00C94A00729
:101370000895882321F00E94C5120C940E1308953D
:10138000882321F00E94CB120C940E1308958F92A3
:101390009F92AF92BF92DF92EF92FF920F931F93B3
:1013A000CF93DF937C01D62FC72FFC0105810295D7
:1013B0000F70128111110E94E4120E943F12D82E68
:1013C000882371F0112321F180E28D0F883000F124
:1013D00082E00E9429120E943F1291E0D82ED92665
:1013E000EC2FE295EF70F0E0E850F64F0C94E21F1E
:1013F0000A0A0A0A5A0A5A0A9C0AB80A370A370A13
:10140000C30A370A5B0B5B0BCE0B370A370AD70BC5
:10141000D12CE6CF0C2F0F70C07F11F00295007F0A
:101420001123A9F0002359F080E28D0F883010F0CD
:10143000D11109C0802F0E94C5120E940E138D2F5A
:101440000E948E0814C0802F0E94D612F6CF8D2FD6
:101450000E946A09002359F080E28D0F883010F055
:10146000D11124C0802F0E94CB120E940E13DD20C8
:1014700009F4A4C10E941C1280FDA0C1F7011282D0
:101480000E9416120E948A10C7010E94EA0B0E9455
:101490001612DF91CF911F910F91FF90EF90DF9087
:1014A000BF90AF909F908F900C94AB10802F0E94B4
:1014B000DC12DBCFFC2FFF70BF2EC07FC03219F0D3
:1014C000B29480EFB822DD2369F0D13029F11123E5
:1014D00069F1002359F0F701858180FFB0CF8F704B
:1014E000858304C0112361F0011104C08B2D0E947B
:1014F000B909BDCF8B2D0130D1F70E94F812B7CFBB
:10150000011106C00E94FB128B2D0E94C009AFCFB3
:10151000013009F4ACCFF6CF112321F0063008F0EA
:10152000A6CFE4CF053008F0A2CFEECF002361F3C1
:101530008D2F0E946A099BCF8C2F8695869583708C
:1015400069F0813009F093CF8D2F9C2F937011118A
:1015500002C090E080E00E94A00789CF8D2F9C2FD1
:101560009370111102C090E080E00E948A077FCF43
:101570008D2F112329F00E9447160E94331777CF31
:101580000E94AF16FACF8C2F837009F047C011115B
:101590006ECF2D2F229526952770220F220F6D2FAB
:1015A0006F70862E912CB12CA12C022E04C0880CB9
:1015B000991CAA1CBB1C0A94D2F760E070E0CB0116
:1015C000D4FF0FC06FE070E080E090E004C0660FD1
:1015D000771F881F991F2A95D2F76095709580957F
:1015E0009095C695C695C370C23051F080F46829B5
:1015F00079298A299B29C13071F00E94331037CF95
:10160000682979298A299B290E944F1030CF0E948E
:101610003310C501B4010E94171029CF86951123FC
:1016200011F08C2F8170882309F421CF2D2F229562
:1016300026952770220F220F6D2F6F70862E912C0A
:10164000B12CA12C022E04C0880C991CAA1CBB1C16
:101650000A94D2F760E070E0CB01D4FF0FC06FE0D6
:1016600070E080E090E004C0660F771F881F991F2C
:101670002A95D2F76095709580959095C695C695F8
:10168000C370C23051F080F4682979298A299B29D6
:10169000C13071F00E940D11EACE682979298A299A
:1016A0009B290E942911E3CE0E940D11C501B401AE
:1016B0000E94F110DCCEE0E2ED0FE53108F062C0EF
:1016C000F0E0EB59F44F0C94E21F7A0B7A0B7A0B93
:1016D0007A0B7A0B7A0B7A0B7A0B7A0B7A0B7A0BE2
:1016E0007A0B7A0B7A0B7A0B7A0B870B950B9C0B88
:1016F000A30BAD0BDF708C2F8F71112321F00E9493
:101700008A108D2FF4CE0E94AB108D2FFECE1123A8
:1017100041F0053008F0ABCE8C2F8F710E94D010B5
:10172000A6CE063008F0A3CEF7CF8C2F8F711123F1
:1017300039F00E948A109BCE8C2F8F711123C9F330
:101740000E94AB1094CE112329F08C2F8F710E9430
:1017500075108DCE0E946B108ACE112349F0CF7187
:101760008C2F0E948A1063E08C2F0E9420127FCE63
:1017700081E00E942912023008F479CE82E00E94B2
:10178000291275CE112329F0011159CE8C2F8F719A
:10179000D0CF0111CDCE8C2F8F71D2CF4C2F4F7067
:1017A0006D2FC7010E9499020E94940F60CE4C2FAA
:1017B0004F706D2FC7010E94F80359CEDF91CF9172
:1017C0001F910F91FF90EF90DF90BF90AF909F908F
:1017D0008F9008950F931F93CF93DF93EC0198811F
:1017E00089812B813C81232B39F08F3F19F481E0D3
:1017F0009F3F19F080E001C081E080FD17C0CE015D
:101800000E94B202882391F0688179818A810E94C6
:10181000F2118C010E9445110E940C10B801CE01FA
:10182000DF91CF911F910F910C94C709DF91CF9158
:101830001F910F9108950E94E4120E94F5120E94D8
:10184000B7120E940E130E94E1170E94331790E016
:1018500080E00E948A0790E080E00C94A0070E943C
:10186000D3120C941B0C0E94E811E92FE295EF7043
:10187000E250EE30E0F4F0E0E05CF34F0C94E21F55
:101880004E0C4E0C570C570C590C570C570C570C50
:101890004E0C4E0C5E0C570C570C5E0C803F19F032
:1018A00020F4803E20F481E00895843FE1F380E05D
:1018B0000895803EC0F3813FD1F7F5CF93FB882791
:1018C00080F90895CF93DF9300D000D01F92CDB759
:1018D000DEB70F900F900F900F900F90DF91CF9188
:1018E0000895CF93DF9300D000D000D0CDB7DEB7FE
:1018F00026960FB6F894DEBF0FBECDBFDF91CF9115
:101900000895CF93DF93C0915C0180915D018C13AA
:1019100003C0DF91CF910895D0E0CE0166E070E082
:101920000E94BD1FFC01E25AFE4F4081518162813D
:101930007381848195810E94710C2196C770E5CFD7
:1019400040918E0150918F016091900170919101B1
:1019500080919201909193010C94710CFF920F93DE
:101960001F93CF93DF9380919301807FC9F480917F
:1019700090018823A9F020915C01F0905D01109105
:101980008E0100918F01E0919101F091920141E06F
:101990001F3F09F040E0DF01A095B095F21206C0AC
:1019A000DF91CF911F910F91FF90089581E03097C3
:1019B00021F0842F0F3F09F080E030E080FD3BC034
:1019C000C90166E070E00E94BD1FEC01C25ADE4F03
:1019D0008981801330C0888181132DC08A81811153
:1019E0002AC08B819C818E179F0710F18E1B9F0B45
:1019F000883C910500F5809193018F708061809300
:101A00009301C90166E070E00E94BD1FFC01ED5921
:101A1000FE4F90819F70906190838EE891E00E94CC
:101A2000EA0BDF91CF911F910F91FF900C94810CE5
:101A30008A0F9B1FDDCF2F5F3F4F2770AFCFAF9235
:101A4000BF92CF92DF92EF92FF920F931F93CF93AB
:101A5000DF93CDB7DEB761970FB6F894DEBF0FBE48
:101A6000CDBF8C0185E0F801DE011D9601900D923D
:101A70008A95E1F7D8014C9111962C911197129605
:101A8000EC9050918E0160918F0180919101909125
:101A9000920131E0009731F06F3F19F431E05F3F80
:101AA00009F030E0B32FB170BB2E30FD83C1F801D7
:101AB000C380D480A0909001AA2009F429C1C8163F
:101AC000D906D0F1D601A81BB90BCD01FF24F394A0
:101AD000883C910508F0F12C80919301982F907F1C
:101AE000FF2009F4CBC0911188C0FE2C621329C0DD
:101AF000541327C0E11025C08F708061809393013B
:101B00000E94A00C8EE891E00E94EA0B8091930164
:101B1000F80185838F2D61960FB6F894DEBF0FBE56
:101B2000CDBFDF91CF911F910F91FF90EF90DF908C
:101B3000CF90BF90AF900895809590958C0D9D1D8E
:101B4000C5CF81E0CD2831F02F3F19F481E04F3F20
:101B500009F080E080FD14C081E08E25F82FF1703F
:101B6000DF2EE0915C0130915D0180FD22C0EE200E
:101B700089F280919301816080939301F12CCACF07
:101B800080E0ECCFF0E0CF0166E070E00E94BD1F86
:101B9000DC01A25ABE4F11968C911197281307C0F1
:101BA0008C91481304C012968C918E11E0CF31961F
:101BB000E770E313E7CF4D872E878D859E850E94C2
:101BC000E811292F22952F70223058F0243080F40C
:101BD0009F7059F0D80115969C91907F31F4FB2CA1
:101BE00099CF9F7011F08823D1F3805E8830B8F3CD
:101BF000C8010E94EA0BBD2CF2CF621312C054132D
:101C000010C0E1100EC0F8018583C8010E94EA0BE4
:101C100086E0F801AEE8B1E001900D928A95E1F717
:101C200042C04D872E878D859E850E94330C882368
:101C300009F4CAC0EE2009F4C7C080919301803234
:101C400070F020918E0130918F0138872F83198693
:101C5000DB86CA868C87CE0107960E94EA0B86E057
:101C6000F801AEE8B1E001900D928A95E1F70E948B
:101C7000AE0C0E94A00CFF24F3944CCF911116C01F
:101C80007C2DD98AC88A522F6E2D89890E94620CB8
:101C90008EE891E00E94EA0B86E0EEE8F1E0DF01D9
:101CA0001D928A95E9F70E94A00C34CF621312C0EE
:101CB000541310C0E1100EC0F8018583C8010E94C2
:101CC000EA0BEEE8F1E086E0DF011D928A95E9F784
:101CD000FA2C20CF4D872E878D859E850E94330C50
:101CE000882309F471C0EE2009F46EC0809193013D
:101CF000803208F4B4CF20918E0130918F013A8365
:101D000029831B82DD82CC828E83CE010196A5CFF2
:101D1000C816D90638F1F601E81BF90BCF01F12CF2
:101D2000883C910508F03DC0FE2CEE2009F44CC023
:101D3000621326C0541324C08091930180FD17C004
:101D4000982F907FA1F0D80115968C931597903F0E
:101D500009F45BCF982F907F905F8F70892B159639
:101D60008C9353CF809590958C0D9D1DD8CF86E098
:101D7000F801AEE8B1E001900D928A95E1F7CACE84
:101D80004D872E878D859E850E94330C811167CFEC
:101D900080919301816080939301C8010E94EA0BB6
:101DA000B9CE7C2DD98AC88A522F6E2D89890E947E
:101DB000620C72CFEE2041F04D872E878D859E8577
:101DC0000E94330C81114BCFC8010E94EA0B53CF04
:101DD000CF93DF93CDB7DEB72C970FB6F894DEBF65
:101DE0000FBECDBF4F83588769877A878B879C87C3
:101DF000CE0107960E941F0D882309F446C09F81DB
:101E000088852A853B85232B39F08F3F19F481E0A3
:101E10009F3F19F080E001C081E080FD08C04F8144
:101E2000588569857A858B859C850E94710C809187
:101E30005C0190915D01891709F46DC090E066E046
:101E400070E00E94BD1F825A9E4F0E941F0D882382
:101E500009F461C080915C0190E066E070E00E944E
:101E6000BD1FFC01E25AFE4F4081518162817381A6
:101E7000848195810E94710C80915C0190E00196B3
:101E80008770992780935C01D2CF86E0FE01379658
:101E9000DE01119601900D928A95E1F79F81888568
:101EA0002A853B85232B39F08F3F19F481E09F3F32
:101EB00019F080E001C081E080FDB9CF80915D0123
:101EC00090E09C012F5F3F4F2770332740915C01CA
:101ED0004217130699F066E070E00E94BD1FDC0116
:101EE000A25ABE4F96E0FE01319601900D929A954E
:101EF000E1F720935D010E94810C99CF0E942F0C85
:101F000010925D0110925C0186E0EEE8F1E0DF01E5
:101F10001D928A95E9F72C960FB6F894DEBF0FBE96
:101F2000CDBFDF91CF910895EF92FF920F931F9352
:101F3000CF93DF938C01892B81F0F12CEE24E39475
:101F4000E8012196F8018491843770F4843008F018
:101F50005FC08130B1F08230A1F1DF91CF911F914C
:101F60000F91FF90EF900895853709F44CC008F465
:101F70003DC09CE7980F903780F78F770E946A09E1
:101F800049C00E5F1F4FFE01849190E2980F983078
:101F900060F48770FE2D01C0FF0F8A95EAF78F2F3E
:101FA0000E94E7120E940E1302C00E948E088F2D1D
:101FB000815030F2EFE9FFE03197F1F700C0000007
:101FC000F7CF0E5F1F4FFE01849190E2980F98307B
:101FD00050F48770FE2D01C0FF0F8A95EAF78F2F0E
:101FE0000E94ED12DFCF0E946A09E1CF0E5F1F4F02
:101FF000FE01C491C150D8F28FE99FE00197F1F73B
:1020000000C00000F7CF0E5F1F4FFE01F490CFCF4E
:102010000E948E088E01CBCF08956093A701709324
:10202000A8018093A9019093AA010C941B0C0F9313
:102030001F930091A7011091A8012091A90130914F
:10204000AA01DC01CB01802B912BA22BB32B809317
:10205000A7019093A801A093A901B093AA011F9191
:102060000F910C941B0C0F931F930091A7011091DB
:10207000A8012091A9013091AA01DC01CB018023A4
:102080009123A223B3238093A7019093A801A09347
:10209000A901B093AA011F910F910C941B0C0F93EF
:1020A0001F930091A7011091A8012091A9013091DF
:1020B000AA01DC01CB0180279127A227B3278093B7
:1020C000A7019093A801A093A901B093AA011F9121
:1020D0000F910C941B0C1092A3011092A40110926A
:1020E000A5011092A6010C941B0C41E050E060E0A9
:1020F00070E004C0440F551F661F771F8A95D2F702
:102100004093A3015093A4016093A5017093A6018D
:102110000C941B0C41E050E060E070E004C0440F00
:10212000551F661F771F8A95D2F78091A301909162
:10213000A401A091A501B091A601842B952BA62BFB
:10214000B72B8093A3019093A401A093A501B09312
:10215000A6010C941B0C41E050E060E070E004C06C
:10216000440F551F661F771F8A95D2F740955095EB
:10217000609570958091A3019091A401A091A50113
:10218000B091A60184239523A623B7238093A301AE
:102190009093A401A093A501B093A6010C941B0CED
:1021A00041E050E060E070E004C0440F551F661F3E
:1021B000771F8A95D2F78091A3019091A401A091F5
:1021C000A501B091A60184279527A627B72780935C
:1021D000A3019093A401A093A501B093A6010C9430
:1021E0001B0C0F931F930091A3011091A401209148
:1021F000A5013091A601DC01CB01802B912BA22BF4
:10220000B32B8093A3019093A401A093A501B09355
:10221000A6011F910F910C941B0C0F931F9300911B
:10222000A3011091A4012091A5013091A601DC0128
:10223000CB0180239123A223B3238093A301909306
:10224000A401A093A501B093A6011F910F910C9436
:102250001B0C0F931F930091A3011091A4012091D7
:10226000A5013091A601DC01CB0180279127A2278F
:10227000B3278093A3019093A401A093A501B093E9
:10228000A6011F910F910C941B0C0895CF93DF931F
:10229000262F990F990F890F982F9770E1E001C0B1
:1022A000EE0F9A95EAF786958695869590E065E01B
:1022B00070E00E94BD1FDC01AC56BE4F50E040E014
:1022C000622F70E08D91ED0121979B01042E02C0D9
:1022D000369527950A94E2F72170219528272E2319
:1022E000282728834F5F5F4F4530510559F7DF910D
:1022F000CF910895990F990F890FA82FA7708695F0
:102300008695869590E065E070E00E94BD1FBC0157
:1023100050E040E080E0FB01E40FF51FEC56FE4F7B
:10232000208130E00A2E02C0369527950A94E2F704
:1023300021703327042E01C0220F0A94EAF7822B62
:102340004F5F5F4F4530510531F70895BF92CF92EF
:10235000DF92EF92FF920F931F93CF93DF938C0145
:10236000C090A301D090A401E090A501F090A60137
:102370008091A7019091A801A091A901B091AA0113
:10238000C82AD92AEA2AFB2ACFE1D0E0BC2ED701FD
:10239000C6010C2E04C0B695A795979587950A940B
:1023A000D2F780FD0EC0219788F7B12C8B2DDF91DD
:1023B000CF911F910F91FF90EF90DF90CF90BF9042
:1023C0000895B8018C2F0E941804019761F3EECF95
:1023D000CF93DF93EC010E94A611BE01DF91CF9154
:1023E0000C9418041F93CF93DF93EB0190915B0142
:1023F000992331F0CB01DF91CF911F910C94E8111B
:10240000882379F0CB010E94A611182F682FCE01E6
:102410000E944611BE01812FDF91CF911F910C9434
:102420001804CB010E947A11182FF4CF8091AB01D0
:1024300085958595859508958091AB018770089560
:10244000982F990F990F990F692B6093AB010C94FA
:102450008A109091AB01809589238093AB01282F3E
:10246000277061F4282F082E000C330B92171306E7
:1024700029F08595859585950C94AB1008959091DC
:10248000AB01977081E009F480E00895909112010A
:102490009923E1F09091010297FF18C0E82FE6958B
:1024A000E695E695EF3139F1209100013091010177
:1024B000E20FF32FF11D877021E030E001C0220F01
:1024C0008A95EAF78181822B81830895209100010A
:1024D00030910101F90132969FEF40E0519185174B
:1024E00051F09F3F19F4511101C0942F4F5F4E31AD
:1024F000A9F79F3F09F40895290F311D97FD3A95DB
:10250000F90182830895909112019923F1F090913D
:10251000010297FF1AC0E82FE695E695E695EF31A0
:1025200029F12091000130910101E20FF32FF11DFB
:10253000282F277081E090E001C0880F2A95EAF7E4
:1025400080959181892381830895209100013091A4
:102550000101F9013296205E3F4F9191891303C02A
:10256000DF0111971C92E217F307B9F7089581E094
:1025700090E0E0910001F0910101E80FF91F108255
:10258000019680329105A9F708959091CF01892B8A
:102590008093CF010895982F90958091CF01892342
:1025A0008093CF0108951092CF0108959091CE01AC
:1025B000892B8093CE010895982F90958091CE011C
:1025C00089238093CE0108951092CE0108959091B1
:1025D000CD01892B8093CD010895982F90958091FE
:1025E000CD0189238093CD0108951092CD010895E6
:1025F0008093AC0108951092AC01089520910001E0
:1026000030910101F9013196205E3F4F80E09191B8
:1026100091118F5FE217F307D1F70895E091000160
:10262000F09101018091CF018083E0910001F09150
:10263000010180819091CE01892B8083E09100017E
:10264000F091010180819091CD01892B808390913F
:10265000AC01992361F0E0910001F09101018081CA
:10266000892B80830E94FE1281111092AC0180910F
:102670000001909101010C9474076DEE7EEF90E0E3
:1026800080E00E941C2060E082E090E00E940A202E
:1026900060E083E090E00E940A2060E084E090E047
:1026A0000E940A2060E085E090E00C940A2090E00F
:1026B00080E00E94042021E08D3E9E4F09F020E042
:1026C000822F089582E090E00C94FC1F682F82E036
:1026D00090E00C940A2083E090E00C94FC1F682F9B
:1026E00083E090E00C940A2084E090E00C94FC1FBE
:1026F000682F84E090E00C940A20809107028430D7
:1027000039F11092D10188E190E020E40FB6F894FD
:10271000A895809360000FBE2093600080E00E9427
:10272000F60383B7817F846083BF83B7816083BFF3
:102730007894889583B78E7F83BF0FB6F894A89559
:1027400080916000886180936000109260000FBEED
:10275000089508950895CF930E94A9130E94B60684
:102760000E94AA13C0E08C2F0E945C07811105C053
:10277000CF5FC530C1F7CF91089581E0FCCF0E94B3
:102780002F0C0E9468070C94F6031F920F920FB64D
:102790000F9211248F939F93AF93BF938091D10198
:1027A000811113C08091FD019091FE01A091FF0164
:1027B000B09100024196A11DB11D8093FD0190933F
:1027C000FE01A093FF01B0930002BF91AF919F91D2
:1027D0008F910F900FBE0F901F90189582E084BDCF
:1027E00093E095BD9AEF97BD80936E0008952FB743
:1027F000F8948091FD019091FE01A091FF01B091AC
:1028000000022FBF0895CF92DF92EF92FF920F93B5
:102810001F932FB7F8944091FD015091FE016091F4
:10282000FF01709100022FBF6A017B01EE24FF249B
:102830008C0130E020E0C016D106E206F30650F02D
:10284000481B590BCA011F910F91FF90EF90DF9029
:10285000CF90089541505109F3CF1F920F920FB6B8
:102860000F9211248F939F93AF93BF938091FD019B
:102870009091FE01A091FF01B09100020196A11D6F
:10288000B11D8093FD019093FE01A093FF01B093D1
:102890000002BF91AF919F918F910F900FBE0F904B
:1028A0001F9018950E94C41BF8942FEF87EA91E6B9
:1028B000215080409040E1F700C0000087E090EB9D
:1028C000DC018093100290931102A0931202B09346
:1028D000130288E19CE00FB6F894A89580936000FD
:1028E0000FBE90936000FFCFCF92DF92EF92FF92E6
:1028F0000F931F93CF93C0E0E82EF12C8C2F0E94F2
:102900005C0710E000E0C82ED12CC601002E02C0EA
:10291000959587950A94E2F780FD11C00F5F1F4FD0
:102920000430110591F7CF5FC53041F780E0CF91BA
:102930001F910F91FF90EF90DF90CF900895602F3F
:102940007C2F80E00E94F903E816F90639F781E050
:10295000EECFCF93C82F8CE20E947414882321F00D
:102960008C2FCF910C94741480E0CF910895CF9365
:102970000E945713811102C00E943D13C5E608C092
:102980000E94B6068FE39CE90197F1F700C00000B2
:10299000C150B1F789E20E94A9148111EFC08AE207
:1029A0000E94A91481110E943D1385E00E94A91480
:1029B00081110E9452140E9462138093D00187E01B
:1029C0000E94A914882371F08BE10E94A914882326
:1029D00009F4B1C09091D001892F8D7F91FF826061
:1029E0008093D0018091D0010E9466130E947413DD
:1029F00090E0909302028093010280EE0E94A9145D
:102A0000882341F090910102892F8E7F90FF816091
:102A10008093010289E30E94A914882341F09091D8
:102A20000102892F8D7F91FF82608093010282EEE7
:102A30000E94A914882341F090910102892F8B7F75
:102A400092FF84608093010286EE0E94A91488237D
:102A500041F090910102892F877F93FF88608093D6
:102A6000010283EE0E94A914882341F09091010293
:102A7000892F8F7E94FF80618093010285E30E94FD
:102A8000A914882341F090910102892F8F7D95FF31
:102A900080628093010281E30E94A914882341F09F
:102AA00090910102892F8F7B96FF806480930102B1
:102AB00081E10E94A914882341F090910102892F9D
:102AC00097FB87F9805880930102809101020E9450
:102AD000781387E20E94A914C82F8EE10E94A914DE
:102AE0008111C2608FE10E94A9148111C46080E24B
:102AF0000E94A9148111C86081E20E94A914811169
:102B0000C06182E20E94A9148111C06283E20E9426
:102B1000A9148111C06484E20E94A914882341F1A0
:102B2000C0688C2F0E946F136C2F70E090E080E0E3
:102B3000CF910C940D108EE00E94A914882339F0D7
:102B40009091D001892F8B7F92FF846049CF80E1E3
:102B50000E94A9149091D001882329F0892F877FA2
:102B600093FF88603DCF892F8E7F90FF816038CFA3
:102B7000C111D7CF0E946B13682FD7CFCF91089583
:102B80008091D40180FF11C08091050190E065E043
:102B900070E00E94BD1F9595879595958795803823
:102BA0009105B0F50097B1F1089581FF0AC08091B9
:102BB000050190E065E070E00E94BD1F9595879546
:102BC000EECF82FF08C08091050190E065E070E0E3
:102BD0000E94BD1FE4CF3091D5013323B1F0209185
:102BE00004018091050190E065E070E00E94BD1F46
:102BF000BC013217A0F6832F90E00E94BD1F622F08
:102C000070E00E94CE1FCB01CACF85E090E008950E
:102C10008FE7089581E008958091D40180FF0CC072
:102C20006091030170E075956795759567956115DD
:102C3000710559F1862F089581FF06C06091030147
:102C400070E075956795F3CF6091030170E082FDA8
:102C50000CC06091D5016623A9F0209102018091FA
:102C6000030190E0621730F0BC0160387105F8F2A2
:102C70008FE7089570E00E94BD1F622F70E00E94F0
:102C8000CE1FF3CF61E070E0D5CF81E00895803FA3
:102C900031F40E94C01581958093D8010895813F39
:102CA00019F40E94C015F8CF823F31F40E94C0157C
:102CB00081958093D7010895833F19F40E94C01530
:102CC000F8CF893F29F40E940C168093D90108950A
:102CD0008A3F21F40E940C168195F7CF8B3F31F487
:102CE0000E940C1681958093DA0108958C3F19F4A7
:102CF0000E940C16F8CF843F31F48091D601816098
:102D00008093D6010895853F21F48091D601826099
:102D1000F7CF863F21F48091D6018460F1CF873FC1
:102D200021F48091D6018860EBCF883F21F4809117
:102D3000D6018061E5CF8D3F31F48091D40181606F
:102D40008093D40108958E3F21F48091D401826054
:102D5000F7CF8F3FB9F78091D4018460F1CF803FE6
:102D6000C1F48091D80187FD1092D8018091D701DC
:102D700081110EC08091D80181110AC08091D901C2
:102D8000811106C08091DA01811102C01092D50133
:102D90000895813F29F48091D80118162CF3E6CFCD
:102DA0009091D701823F29F497FFE0CF1092D7018D
:102DB000DDCF833F19F41916CCF3D8CF893F39F40E
:102DC0008091D901181694F61092D901CFCF8A3F7D
:102DD00029F48091D90187FFC9CFF6CF8B3F39F411
:102DE0008091DA0187FFC2CF1092DA01BFCF8C3F0A
:102DF00029F48091DA011816BCF3B8CF843F31F47E
:102E00008091D6018E7F8093D601B0CF853F21F48B
:102E10008091D6018D7FF7CF863F21F48091D60136
:102E20008B7FF1CF873F21F48091D601877FEBCF55
:102E3000883F21F48091D6018F7EE5CF8D3F31F41C
:102E40008091D4018E7F8093D40190CF8E3F21F466
:102E50008091D4018D7FF7CF8F3F09F087CF80918C
:102E6000D4018B7FF0CF86ED91E00E947F070E9416
:102E7000F7139093D3018093D20108951F93CF93BA
:102E8000DF938091D2019091D3010E940314FC0141
:102E90002091D5018091060190E0211107C0809119
:102EA000070190E06AE070E00E94BD1FE817F90793
:102EB00080F08091D701C091D8011091D901D091B3
:102EC000DA0181110AC0C11178C0111176C0D11187
:102ED00074C0DF91CF911F9108952F3F19F02F5F9C
:102EE0002093D501181624F40E94C0158093D701B1
:102EF0008091D70187FF05C00E94C01581958093FE
:102F0000D7011C1624F40E94C0158093D80180912B
:102F1000D80187FF05C00E94C01581958093D80114
:102F20006091D701662331F1C091D801CC2311F112
:102F3000062E000C770B880B990B0E94BC1E23E316
:102F400033E343E35FE30E94201F0E94841E6093EB
:102F5000D7016C2FCC0F770B880B990B0E94BC1EEE
:102F600023E333E343E35FE30E94201F0E94841EB8
:102F70006093D801111624F40E940C168093D90195
:102F80008091D90187FF05C00E940C16819580931E
:102F9000D9011D1624F40E940C168093DA01809149
:102FA000DA0187FF05C00E940C1681958093DA0133
:102FB000DF91CF911F910C9433172F3F09F08FCFE2
:102FC000A0CF85E0E6EDF1E0DF011D928A95E9F7FB
:102FD0001092D5011092D40108958091FB010895BB
:102FE000CF93DF9300D01F92CDB7DEB79C018091C5
:102FF0000702843019F593E099833B832A839093E9
:10300000E9008FEF9091E800815095FD06C095EDA5
:103010009A95F1F700008111F5CF8091E80085FFC6
:103020000DC050E040E063E070E0CE0101960E94E8
:103030003A1A8091E8008E778093E8000F900F9005
:103040000F90DF91CF910895CF93DF9300D01F921F
:10305000CDB7DEB720910702243031F522E0298375
:10306000805891099B838A8383E08093E9008FEFE6
:103070009091E800815095FD06C095ED9A95F1F785
:1030800000008111F5CF8091E80085FF0DC050E070
:1030900040E063E070E0CE0101960E943A1A809110
:1030A000E8008E778093E8000F900F900F90DF91EB
:1030B000CF9108959C01809107028430F9F482E059
:1030C0008093E9009FEF8091E800915085FD06C054
:1030D00085ED8A95F1F700009111F5CF8091E80018
:1030E00085FF0CC050E040E065E070E0C9010E943F
:1030F0003A1A8091E8008E778093E8000895CF9384
:10310000DF93EC01809107028430F1F49091120179
:103110009923E9F09091010297FF19C08093E9008B
:103120008FEF9091E800815095FD06C095E19A954A
:10313000F1F700008111F5CF8091E80050E040E008
:1031400060E270E085FD1AC0DF91CF91089581E0C3
:103150008093E9008FEF9091E800815095FD06C0C3
:1031600095ED9A95F1F700008111F5CF8091E80077
:1031700085FFEACF50E040E068E070E0CE010E94B9
:103180003A1A8091E8008E778093E80080E2FE0191
:10319000ABEDB1E001900D928A95E1F7D5CF08959E
:1031A00008950C94BF1342E061EC81E00E94421B41
:1031B00042E061EC82E00E94421B42E061EC83E06D
:1031C0000E94421B42E261EC84E00C94421B80911D
:1031D0000902833009F455C030F4813071F1823036
:1031E00009F491C008958A3009F47DC08B3009F448
:1031F00063C0893009F044C080910802813209F02F
:103200003FC080910C0290910D02009711F003973E
:10321000B9F58091E800877F8093E8008091E8000D
:1032200082FF2AC08091F1008093FB018091E80029
:103230008B778093E8000C94761B80910802813A8A
:10324000F9F48091E800877F8093E80080910C0278
:1032500090910D02892B61F460E28BED91E070E0BA
:103260000E94891A8091E8008B778093E800089586
:1032700060E090E080E0F3CF809107028111CECF33
:10328000089580910802813AD9F780910C029091BB
:103290000D02892BA9F78091E800877F8093E800D1
:1032A0008091E80080FFFCCF809112018093F100B3
:1032B0008091E8008E77BDCF80910802813201F7BE
:1032C00080910C0290910D02892BD1F68091E8003B
:1032D000877F8093E8000E94761B80910A0280938A
:1032E00012010C942F0C80910802813249F68091D2
:1032F000E800877F8093E8000E94761B80910B0294
:103300008093FC01089580910802813A09F0B8CFBA
:103310008091E800877F8093E8008091E80080FF3B
:10332000FCCF8091FC01C2CF84B7877F84BF0FB6EA
:10333000F894A89580916000886180936000109255
:1033400060000FBE80E880936100109261000E94CF
:10335000B7070E94C41B0E94171C8091E200846082
:103360008093E20078940E94681E0E94B90788E06A
:1033700091E00E94630780910702853019F00E9456
:10338000BF07F9CF0E947D1380910502882399F32E
:103390000E94AB13882379F30E94241AECCF292FC3
:1033A00033272330310579F158F421303105F1F01C
:1033B0002230310519F190E080E030E020E01AC0C1
:1033C0002132310599F122323105A9F7643098F79D
:1033D00070E0FB01EE0FFF1FE05EFE4F20813181A8
:1033E000645E7E4FFB01808190E004C082E190E04A
:1033F00021E933E0FA013183208308958DE690E0DE
:1034000024E233E0F7CF99278130910561F028F06D
:10341000029789F6E4EFF2E002C0E0E2F3E0849183
:1034200090E09F01E7CFE8E0F3E0F9CF643008F0E7
:10343000C2CFE62FF0E0EE0FFF1FE85DFE4F2081C8
:10344000318189E090E0D6CF84E089BD86E089BDF6
:1034500009B400FEFDCF8091D8008F7D8093D80005
:103460008091E00082608093E0008091E00081FD27
:10347000FCCF0895AF92BF92CF92DF92FF920F934D
:103480001F93CF93DF936C01EB018A010E94951B80
:10349000F82E811123C00115110539F0F801808142
:1034A0009181C81BD90BC80ED91EB12CA12C209715
:1034B000A9F08091E80085FD22C08091E8008E7718
:1034C0008093E80001151105A1F0F8018081918138
:1034D000A80EB91EB182A08285E0F82E8F2DDF9153
:1034E000CF911F910F91FF90DF90CF90BF90AF9041
:1034F00008950E94951B8823D1F2F82EEFCFF60194
:1035000081916F018093F1002197FFEFAF1ABF0AFD
:10351000CECFFC0180910E0290910F028617970783
:10352000A0F06115710529F49091E8009E779093C1
:10353000E80090E06115710551F4911108C0809187
:10354000E80082FF32C080E00895BC01F2CF809194
:1035500007028823B1F18530B1F18091E80083FD45
:103560002EC08091E80082FDEACF8091E80080FFC4
:10357000E1CF2091F20030E06115710519F028309B
:10358000310558F091E02830310509F090E02091A4
:10359000E8002E772093E800CDCF81918093F10051
:1035A000615071092F5F3F4FE7CF80910702882359
:1035B00041F0853041F08091E80083FFC0CF81E089
:1035C000089582E0089583E00895FC0180910E0241
:1035D00090910F0286179707A0F06115710529F4E5
:1035E0008091E8008E778093E80090E06115710586
:1035F00051F4911108C08091E80082FF33C080E04F
:103600000895BC01F2CF809107028823B9F185307B
:10361000B9F18091E80083FD2FC08091E80082FD20
:10362000EACF8091E80080FFE1CF2091F20030E006
:103630006115710519F02830310558F091E02830F6
:10364000310509F090E08091E8008E778093E800E2
:10365000CDCF84918093F1003196615071092F5F35
:103660003F4FE6CF80910702882341F0853041F03B
:103670008091E80083FFBFCF81E0089582E0089544
:1036800083E00895982F953028F08F708093E9009B
:1036900081E008959093E900242F762F50E0981749
:1036A00031F07091EC002091ED005091F00021FD7F
:1036B00002C09F5FE8CF3091EB003E7F3093EB007C
:1036C0003091ED003D7F3093ED003091EB003160A3
:1036D0003093EB007093EC002093ED005093F000DA
:1036E0002091EE0027FDE5CF80E00895809108024B
:1036F00087FF13C08091E80082FF06C08091E80038
:103700008B778093E80004C0809107028111F2CF8B
:103710000895809107028823D9F38091E80080FF03
:10372000F8CF8091E8008E77ECCF2091E4003091C3
:10373000E50085E69091EC0090FF06C09091E800CE
:1037400090FF06C080E008959091E80092FDFACFC6
:1037500090910702992391F0953091F09091EB00B0
:1037600095FD10C04091E4005091E5002417350705
:1037700009F381509A01F1F684E0089582E00895FA
:1037800083E0089581E008950E94211C0E94241C7A
:10379000E0EEF0E0808181608083E8EDF0E0808100
:1037A0008F77808319BCE3E6F0E0808181608083BD
:1037B0001092060208950E94211C0E94241C8091F0
:1037C000D8008F778093D8008091D800806880934C
:1037D000D8008091D8008F7D8093D80084E089BD87
:1037E00086E089BD09B400FEFDCF10920702109259
:1037F0000302109205021092040242E060E080E0B1
:103800000E94421B8091E1008E7F8093E1008091B5
:10381000E20081608093E2008091E2008860809302
:10382000E2008091E0008E7F8093E0000895E3E65F
:10383000F0E080818E7F808381E0809306020C948B
:10384000DB1B1092E20008951092E10008951F9290
:103850000F920FB60F9211242F933F934F935F93C4
:103860006F937F938F939F93AF93BF93EF93FF9348
:103870008091E10082FF0BC08091E20082FF07C0CF
:103880008091E1008B7F8093E1000E94671E809110
:10389000E10080FF19C08091E20080FF15C0809197
:1038A000E2008E7F8093E2008091E200806180934D
:1038B000E2008091D80080628093D80019BC85E036
:1038C000809307020E94D0188091E10084FF29C0F4
:1038D0008091E20084FF25C084E089BD86E089BD37
:1038E00009B400FEFDCF8091D8008F7D8093D80071
:1038F0008091E1008F7E8093E1008091E2008F7ED5
:103900008093E2008091E20081608093E2008091E8
:103910000302882309F443C084E0809307020E94D5
:10392000D1188091E10083FF29C08091E20083FFDC
:1039300025C08091E100877F8093E10082E0809341
:103940000702109203028091E1008E7F8093E100D4
:103950008091E2008E7F8093E2008091E20080619E
:103960008093E20042E060E080E00E94421B809190
:10397000F00088608093F0000E94CF18FF91EF91D3
:10398000BF91AF919F918F917F916F915F914F9177
:103990003F912F910F900FBE0F901F90189580911F
:1039A000E30087FD02C081E0B8CF83E0B6CF1F926D
:1039B0000F920FB60F9211242F933F934F935F9363
:1039C0006F937F938F939F93AF93BF93CF93EF9317
:1039D000FF93C091E900CF708091EC001092E90054
:1039E0008091F000877F8093F00078940E94131DEF
:1039F0001092E9008091F00088608093F000C093FD
:103A0000E900FF91EF91CF91BF91AF919F918F917D
:103A10007F916F915F914F913F912F910F900FBECA
:103A20000F901F9018951F93CF93DF93CDB7DEB7FC
:103A3000AA970FB6F894DEBF0FBECDBFE8E0F2E064
:103A40008091F100819322E0E031F207C9F70E94F2
:103A5000E7188091E80083FF42C0809108029091AE
:103A600009029A3008F03BC0E92FF0E0E65CF24E24
:103A70000C94E21F441D681D6F1D681D6F1DC31D42
:103A8000E51D6F1D3A1E471E803879F0823839F5E2
:103A900080910C028F708093E9008091EB0085FB90
:103AA000882780F91092E90006C080910402909165
:103AB0000502911182609091E800977F9093E80051
:103AC0008093F1001092F1008091E8008E772DC074
:103AD000282F2D7F21F48823D1F0823059F1809155
:103AE000E80083FF0AC08091E800877F8093E800A8
:103AF0008091EB0080628093EB00AA960FB6F89459
:103B0000DEBF0FBECDBFDF91CF911F910895809191
:103B10000A02813021F7933009F080E0809305029A
:103B20001092E9008091E800877F8093E8000E946E
:103B3000761BD5CF80910A028111F2CF80910C02C1
:103B40008F7069F28093E9002091EB0020FFE8CFAD
:103B5000933031F48091EB0080628093EB00E0CFF2
:103B60009091EB0090619093EB0021E030E001C078
:103B7000220F8A95EAF72093EA001092EA008091DA
:103B8000EB008860EACF8111AACF10910A021F775B
:103B90008091E3008078812B8093E3008091E8009E
:103BA000877F8093E8000E94761B8091E80080FF69
:103BB000FCCF8091E30080688093E30083E01111E3
:103BC00001C082E0809307028ACF8058823008F0DB
:103BD00086CF80910A0290910B028C3D23E09207E0
:103BE000A1F583E08A838AE289834FB7F894DE01E6
:103BF000139620E03EE051E2E32FF0E050935700AF
:103C0000E49120FF03C0E295EF703F5FEF708E2FCD
:103C100090E0EA30C0F0C7968D939D932F5F2431DA
:103C200059F74FBF8091E800877F8093E8006AE2F0
:103C300070E0CE0101960E94891A8091E8008B778E
:103C40008093E8004CCFC096E7CFAE014F5F5F4F47
:103C500060910C020E94CF19BC01892B09F43FCF5F
:103C60009091E800977F9093E80089819A810E9463
:103C7000E51AE3CF803809F032CF8091E800877FE2
:103C80008093E800809103028093F1001DCF8111A1
:103C900026CF90910A02923008F021CF8091E8005F
:103CA000877F8093E800909303020E94761B8091A7
:103CB0000302882331F084E0809307020E94D31826
:103CC0000ECF8091E30087FDF6CF81E0F5CF089518
:103CD000CF9380910702882399F0C091E900CF70BB
:103CE0008091EC0080FD0EC080E0C82B1092E900AE
:103CF0008091E80083FD0E94131DCF70C093E900FE
:103D0000CF91089580E8F1CF0E948B1E6894B11185
:103D10000C941A1F08950E94FF1E88F09F5798F078
:103D2000B92F9927B751B0F0E1F0660F771F881FC0
:103D3000991F1AF0BA95C9F714C0B13091F00E94DA
:103D4000191FB1E008950C94191F672F782F882749
:103D5000B85F39F0B93FCCF3869577956795B39501
:103D6000D9F73EF490958095709561957F4F8F4F70
:103D70009F4F0895E89409C097FB3EF49095809575
:103D8000709561957F4F8F4F9F4F9923A9F0F92F21
:103D900096E9BB279395F695879577956795B7959F
:103DA000F111F8CFFAF4BB0F11F460FF1BC06F5F85
:103DB0007F4F8F4F9F4F16C0882311F096E911C097
:103DC000772321F09EE8872F762F05C0662371F0B8
:103DD00096E8862F70E060E02AF09A95660F771FCC
:103DE000881FDAF7880F9695879597F9089557FDFC
:103DF0009058440F551F59F05F3F71F04795880F59
:103E000097FB991F61F09F3F79F0879508951216EF
:103E100013061406551FF2CF4695F1DF08C016169B
:103E200017061806991FF1CF86957105610508944C
:103E30000895E894BB2766277727CB0197F9089563
:103E40000E94321F0C94AC1F0E949E1F38F00E94EB
:103E5000A51F20F0952311F00C94951F0C949B1F27
:103E60000C941A1F0E94F71E78F39923C9F3552367
:103E7000B9F3950F50E0551FAA27EE27FF27BB2760
:103E800000240894679520F4E20FF31FB41F0A1E64
:103E9000220F331F441FAA1F6695A9F7779530F4A8
:103EA000F30FB41F0A1E121E08F46395330F441F4C
:103EB000AA1F221F769599F7879520F4B40F0A1E42
:103EC000121E631F440FAA1F221F331F8695A9F7D6
:103ED000862F712D602D11249F5750409AF0F1F0DC
:103EE00088234AF0EE0FFF1FBB1F661F771F881F36
:103EF00091505040A9F79E3F510580F00C94951FBA
:103F00000C941A1F5F3FE4F3983ED4F3869577959F
:103F10006795B795F795E7959F5FC1F7FE2B880FDB
:103F2000911D9695879597F9089597F99F6780E871
:103F300070E060E008959FEF80EC089500240A94FB
:103F40001616170618060906089500240A94121674
:103F50001306140605060895092E0394000C11F4A7
:103F6000882352F0BB0F40F4BF2B11F460FF04C054
:103F70006F5F7F4F8F4F9F4F08950024552704C0D8
:103F8000080E591F880F991F009729F0769567959D
:103F9000B8F37105B9F7802D952F089597FB072E7B
:103FA00016F4009407D077FD09D00E94E81F07FCA3
:103FB00005D03EF4909581959F4F08957095619539
:103FC0007F4F0895EE0FFF1F0590F491E02D0994A7
:103FD000AA1BBB1B51E107C0AA1FBB1FA617B7072F
:103FE00010F0A61BB70B881F991F5A95A9F780954B
:103FF0009095BC01CD010895F999FECF92BD81BD88
:10400000F89A992780B50895A8E1B0E042E050E021
:104010000C942420262FF999FECF92BD81BDF89AE9
:10402000019700B4021639F01FBA20BD0FB6F894FC
:10403000FA9AF99A0FBE08950196272F0E940B2035
:104040000C940A20DC01CB01FC01F999FECF06C0DB
:10405000F2BDE1BDF89A319600B40D924150504046
:08406000B8F70895F894FFCFB2
:10406800AD012808140A321EED177F185A182418B3
:10407800F01701959492936264653231404D363958
:104088005F041204DC03A30336034F0368038103B0
:00000001FF
